{
  "_format": "hh-sol-artifact-1",
  "contractName": "NFTMarket",
  "sourceName": "contracts/NFTMarket.sol",
  "abi": [
    {
      "inputs": [],
      "stateMutability": "nonpayable",
      "type": "constructor"
    },
    {
      "anonymous": false,
      "inputs": [
        {
          "indexed": true,
          "internalType": "address",
          "name": "owner",
          "type": "address"
        },
        {
          "indexed": true,
          "internalType": "address",
          "name": "approved",
          "type": "address"
        },
        {
          "indexed": true,
          "internalType": "uint256",
          "name": "tokenId",
          "type": "uint256"
        }
      ],
      "name": "Approval",
      "type": "event"
    },
    {
      "anonymous": false,
      "inputs": [
        {
          "indexed": true,
          "internalType": "address",
          "name": "owner",
          "type": "address"
        },
        {
          "indexed": true,
          "internalType": "address",
          "name": "operator",
          "type": "address"
        },
        {
          "indexed": false,
          "internalType": "bool",
          "name": "approved",
          "type": "bool"
        }
      ],
      "name": "ApprovalForAll",
      "type": "event"
    },
    {
      "anonymous": false,
      "inputs": [
        {
          "indexed": true,
          "internalType": "uint256",
          "name": "tokenId",
          "type": "uint256"
        },
        {
          "indexed": false,
          "internalType": "address",
          "name": "seller",
          "type": "address"
        },
        {
          "indexed": false,
          "internalType": "address",
          "name": "owner",
          "type": "address"
        },
        {
          "indexed": false,
          "internalType": "uint256",
          "name": "price",
          "type": "uint256"
        },
        {
          "indexed": false,
          "internalType": "bool",
          "name": "sold",
          "type": "bool"
        }
      ],
      "name": "MarketItemCreated",
      "type": "event"
    },
    {
      "anonymous": false,
      "inputs": [
        {
          "indexed": true,
          "internalType": "address",
          "name": "from",
          "type": "address"
        },
        {
          "indexed": true,
          "internalType": "address",
          "name": "to",
          "type": "address"
        },
        {
          "indexed": true,
          "internalType": "uint256",
          "name": "tokenId",
          "type": "uint256"
        }
      ],
      "name": "Transfer",
      "type": "event"
    },
    {
      "inputs": [
        {
          "internalType": "address",
          "name": "to",
          "type": "address"
        },
        {
          "internalType": "uint256",
          "name": "tokenId",
          "type": "uint256"
        }
      ],
      "name": "approve",
      "outputs": [],
      "stateMutability": "nonpayable",
      "type": "function"
    },
    {
      "inputs": [
        {
          "internalType": "address",
          "name": "owner",
          "type": "address"
        }
      ],
      "name": "balanceOf",
      "outputs": [
        {
          "internalType": "uint256",
          "name": "",
          "type": "uint256"
        }
      ],
      "stateMutability": "view",
      "type": "function"
    },
    {
      "inputs": [
        {
          "internalType": "uint256",
          "name": "tokenId",
          "type": "uint256"
        }
      ],
      "name": "createMarketSale",
      "outputs": [],
      "stateMutability": "payable",
      "type": "function"
    },
    {
      "inputs": [
        {
          "internalType": "string",
          "name": "tokenURI",
          "type": "string"
        },
        {
          "internalType": "uint256",
          "name": "price",
          "type": "uint256"
        }
      ],
      "name": "createToken",
      "outputs": [
        {
          "internalType": "uint256",
          "name": "",
          "type": "uint256"
        }
      ],
      "stateMutability": "payable",
      "type": "function"
    },
    {
      "inputs": [],
      "name": "fetchItemsListed",
      "outputs": [
        {
          "components": [
            {
              "internalType": "uint256",
              "name": "tokenId",
              "type": "uint256"
            },
            {
              "internalType": "address payable",
              "name": "seller",
              "type": "address"
            },
            {
              "internalType": "address payable",
              "name": "owner",
              "type": "address"
            },
            {
              "internalType": "uint256",
              "name": "price",
              "type": "uint256"
            },
            {
              "internalType": "bool",
              "name": "sold",
              "type": "bool"
            }
          ],
          "internalType": "struct NFTMarket.marketItems[]",
          "name": "",
          "type": "tuple[]"
        }
      ],
      "stateMutability": "view",
      "type": "function"
    },
    {
      "inputs": [],
      "name": "fetchMarketItems",
      "outputs": [
        {
          "components": [
            {
              "internalType": "uint256",
              "name": "tokenId",
              "type": "uint256"
            },
            {
              "internalType": "address payable",
              "name": "seller",
              "type": "address"
            },
            {
              "internalType": "address payable",
              "name": "owner",
              "type": "address"
            },
            {
              "internalType": "uint256",
              "name": "price",
              "type": "uint256"
            },
            {
              "internalType": "bool",
              "name": "sold",
              "type": "bool"
            }
          ],
          "internalType": "struct NFTMarket.marketItems[]",
          "name": "",
          "type": "tuple[]"
        }
      ],
      "stateMutability": "view",
      "type": "function"
    },
    {
      "inputs": [],
      "name": "fetchNFTS",
      "outputs": [
        {
          "components": [
            {
              "internalType": "uint256",
              "name": "tokenId",
              "type": "uint256"
            },
            {
              "internalType": "address payable",
              "name": "seller",
              "type": "address"
            },
            {
              "internalType": "address payable",
              "name": "owner",
              "type": "address"
            },
            {
              "internalType": "uint256",
              "name": "price",
              "type": "uint256"
            },
            {
              "internalType": "bool",
              "name": "sold",
              "type": "bool"
            }
          ],
          "internalType": "struct NFTMarket.marketItems[]",
          "name": "",
          "type": "tuple[]"
        }
      ],
      "stateMutability": "view",
      "type": "function"
    },
    {
      "inputs": [
        {
          "internalType": "uint256",
          "name": "tokenId",
          "type": "uint256"
        }
      ],
      "name": "getApproved",
      "outputs": [
        {
          "internalType": "address",
          "name": "",
          "type": "address"
        }
      ],
      "stateMutability": "view",
      "type": "function"
    },
    {
      "inputs": [],
      "name": "getListingPrice",
      "outputs": [
        {
          "internalType": "uint256",
          "name": "",
          "type": "uint256"
        }
      ],
      "stateMutability": "view",
      "type": "function"
    },
    {
      "inputs": [
        {
          "internalType": "address",
          "name": "owner",
          "type": "address"
        },
        {
          "internalType": "address",
          "name": "operator",
          "type": "address"
        }
      ],
      "name": "isApprovedForAll",
      "outputs": [
        {
          "internalType": "bool",
          "name": "",
          "type": "bool"
        }
      ],
      "stateMutability": "view",
      "type": "function"
    },
    {
      "inputs": [],
      "name": "name",
      "outputs": [
        {
          "internalType": "string",
          "name": "",
          "type": "string"
        }
      ],
      "stateMutability": "view",
      "type": "function"
    },
    {
      "inputs": [
        {
          "internalType": "uint256",
          "name": "tokenId",
          "type": "uint256"
        }
      ],
      "name": "ownerOf",
      "outputs": [
        {
          "internalType": "address",
          "name": "",
          "type": "address"
        }
      ],
      "stateMutability": "view",
      "type": "function"
    },
    {
      "inputs": [
        {
          "internalType": "uint256",
          "name": "tokenId",
          "type": "uint256"
        },
        {
          "internalType": "uint256",
          "name": "price",
          "type": "uint256"
        }
      ],
      "name": "resellToken",
      "outputs": [],
      "stateMutability": "payable",
      "type": "function"
    },
    {
      "inputs": [
        {
          "internalType": "address",
          "name": "from",
          "type": "address"
        },
        {
          "internalType": "address",
          "name": "to",
          "type": "address"
        },
        {
          "internalType": "uint256",
          "name": "tokenId",
          "type": "uint256"
        }
      ],
      "name": "safeTransferFrom",
      "outputs": [],
      "stateMutability": "nonpayable",
      "type": "function"
    },
    {
      "inputs": [
        {
          "internalType": "address",
          "name": "from",
          "type": "address"
        },
        {
          "internalType": "address",
          "name": "to",
          "type": "address"
        },
        {
          "internalType": "uint256",
          "name": "tokenId",
          "type": "uint256"
        },
        {
          "internalType": "bytes",
          "name": "_data",
          "type": "bytes"
        }
      ],
      "name": "safeTransferFrom",
      "outputs": [],
      "stateMutability": "nonpayable",
      "type": "function"
    },
    {
      "inputs": [
        {
          "internalType": "address",
          "name": "operator",
          "type": "address"
        },
        {
          "internalType": "bool",
          "name": "approved",
          "type": "bool"
        }
      ],
      "name": "setApprovalForAll",
      "outputs": [],
      "stateMutability": "nonpayable",
      "type": "function"
    },
    {
      "inputs": [
        {
          "internalType": "bytes4",
          "name": "interfaceId",
          "type": "bytes4"
        }
      ],
      "name": "supportsInterface",
      "outputs": [
        {
          "internalType": "bool",
          "name": "",
          "type": "bool"
        }
      ],
      "stateMutability": "view",
      "type": "function"
    },
    {
      "inputs": [],
      "name": "symbol",
      "outputs": [
        {
          "internalType": "string",
          "name": "",
          "type": "string"
        }
      ],
      "stateMutability": "view",
      "type": "function"
    },
    {
      "inputs": [
        {
          "internalType": "uint256",
          "name": "tokenId",
          "type": "uint256"
        }
      ],
      "name": "tokenURI",
      "outputs": [
        {
          "internalType": "string",
          "name": "",
          "type": "string"
        }
      ],
      "stateMutability": "view",
      "type": "function"
    },
    {
      "inputs": [
        {
          "internalType": "address",
          "name": "from",
          "type": "address"
        },
        {
          "internalType": "address",
          "name": "to",
          "type": "address"
        },
        {
          "internalType": "uint256",
          "name": "tokenId",
          "type": "uint256"
        }
      ],
      "name": "transferFrom",
      "outputs": [],
      "stateMutability": "nonpayable",
      "type": "function"
    }
  ],
  "bytecode": "0x60806040526658d15e17628000600c553480156200001c57600080fd5b506040518060400160405280600d81526020017f4e465461727420546f6b656e73000000000000000000000000000000000000008152506040518060400160405280600681526020017f4e4654415254000000000000000000000000000000000000000000000000000081525060016000819055508160019080519060200190620000a99291906200010c565b508060029080519060200190620000c29291906200010c565b50505033600a60006101000a81548173ffffffffffffffffffffffffffffffffffffffff021916908373ffffffffffffffffffffffffffffffffffffffff16021790555062000221565b8280546200011a90620001bc565b90600052602060002090601f0160209004810192826200013e57600085556200018a565b82601f106200015957805160ff19168380011785556200018a565b828001600101855582156200018a579182015b82811115620001895782518255916020019190600101906200016c565b5b5090506200019991906200019d565b5090565b5b80821115620001b85760008160009055506001016200019e565b5090565b60006002820490506001821680620001d557607f821691505b60208210811415620001ec57620001eb620001f2565b5b50919050565b7f4e487b7100000000000000000000000000000000000000000000000000000000600052602260045260246000fd5b6142ea80620002316000396000f3fe60806040526004361061011f5760003560e01c806370a08231116100a0578063b88d4fde11610064578063b88d4fde146103ee578063be9af53614610417578063c87b56dd14610433578063e219fc7514610470578063e985e9c51461048c5761011f565b806370a082311461030257806372b3b6201461033f5780638599888f1461036f57806395d89b411461039a578063a22cb465146103c55761011f565b806312e85585116100e757806312e855851461021d57806323b872dd1461024857806342842e0e1461027157806345f8fa801461029a5780636352211e146102c55761011f565b806301ffc9a71461012457806306fdde0314610161578063081812fc1461018c578063095ea7b3146101c95780630f08efe0146101f2575b600080fd5b34801561013057600080fd5b5061014b60048036038101906101469190612d89565b6104c9565b604051610158919061349e565b60405180910390f35b34801561016d57600080fd5b506101766105ab565b60405161018391906134b9565b60405180910390f35b34801561019857600080fd5b506101b360048036038101906101ae9190612e3f565b61063d565b6040516101c091906133d0565b60405180910390f35b3480156101d557600080fd5b506101f060048036038101906101eb9190612d49565b6106c2565b005b3480156101fe57600080fd5b506102076107da565b604051610214919061347c565b60405180910390f35b34801561022957600080fd5b50610232610a43565b60405161023f91906137bb565b60405180910390f35b34801561025457600080fd5b5061026f600480360381019061026a9190612c33565b610a4d565b005b34801561027d57600080fd5b5061029860048036038101906102939190612c33565b610aad565b005b3480156102a657600080fd5b506102af610acd565b6040516102bc919061347c565b60405180910390f35b3480156102d157600080fd5b506102ec60048036038101906102e79190612e3f565b610dbb565b6040516102f991906133d0565b60405180910390f35b34801561030e57600080fd5b5061032960048036038101906103249190612bc6565b610e6d565b60405161033691906137bb565b60405180910390f35b61035960048036038101906103549190612de3565b610f25565b60405161036691906137bb565b60405180910390f35b34801561037b57600080fd5b50610384610f67565b604051610391919061347c565b60405180910390f35b3480156103a657600080fd5b506103af611255565b6040516103bc91906134b9565b60405180910390f35b3480156103d157600080fd5b506103ec60048036038101906103e79190612d09565b6112e7565b005b3480156103fa57600080fd5b5061041560048036038101906104109190612c86565b6112fd565b005b610431600480360381019061042c9190612e3f565b61135f565b005b34801561043f57600080fd5b5061045a60048036038101906104559190612e3f565b6115f3565b60405161046791906134b9565b60405180910390f35b61048a60048036038101906104859190612e6c565b611745565b005b34801561049857600080fd5b506104b360048036038101906104ae9190612bf3565b61193a565b6040516104c0919061349e565b60405180910390f35b60007f80ac58cd000000000000000000000000000000000000000000000000000000007bffffffffffffffffffffffffffffffffffffffffffffffffffffffff1916827bffffffffffffffffffffffffffffffffffffffffffffffffffffffff1916148061059457507f5b5e139f000000000000000000000000000000000000000000000000000000007bffffffffffffffffffffffffffffffffffffffffffffffffffffffff1916827bffffffffffffffffffffffffffffffffffffffffffffffffffffffff1916145b806105a457506105a3826119ce565b5b9050919050565b6060600180546105ba90613a5c565b80601f01602080910402602001604051908101604052809291908181526020018280546105e690613a5c565b80156106335780601f1061060857610100808354040283529160200191610633565b820191906000526020600020905b81548152906001019060200180831161061657829003601f168201915b5050505050905090565b600061064882611a38565b610687576040517f08c379a000000000000000000000000000000000000000000000000000000000815260040161067e906136db565b60405180910390fd5b6005600083815260200190815260200160002060009054906101000a900473ffffffffffffffffffffffffffffffffffffffff169050919050565b60006106cd82610dbb565b90508073ffffffffffffffffffffffffffffffffffffffff168373ffffffffffffffffffffffffffffffffffffffff16141561073e576040517f08c379a00000000000000000000000000000000000000000000000000000000081526004016107359061371b565b60405180910390fd5b8073ffffffffffffffffffffffffffffffffffffffff1661075d611aa4565b73ffffffffffffffffffffffffffffffffffffffff16148061078c575061078b81610786611aa4565b61193a565b5b6107cb576040517f08c379a00000000000000000000000000000000000000000000000000000000081526004016107c2906135db565b60405180910390fd5b6107d58383611aac565b505050565b606060006107e86008611b65565b905060006107f66009611b65565b6108006008611b65565b61080a9190613960565b90506000808267ffffffffffffffff81111561082957610828613bf5565b5b60405190808252806020026020018201604052801561086257816020015b61084f61297d565b8152602001906001900390816108475790505b50905060005b84811015610a38573073ffffffffffffffffffffffffffffffffffffffff16600b600060018461089891906138d9565b815260200190815260200160002060020160009054906101000a900473ffffffffffffffffffffffffffffffffffffffff1673ffffffffffffffffffffffffffffffffffffffff161415610a255760006001826108f591906138d9565b90506000600b60008381526020019081526020016000209050806040518060a0016040529081600082015481526020016001820160009054906101000a900473ffffffffffffffffffffffffffffffffffffffff1673ffffffffffffffffffffffffffffffffffffffff1673ffffffffffffffffffffffffffffffffffffffff1681526020016002820160009054906101000a900473ffffffffffffffffffffffffffffffffffffffff1673ffffffffffffffffffffffffffffffffffffffff1673ffffffffffffffffffffffffffffffffffffffff168152602001600382015481526020016004820160009054906101000a900460ff161515151581525050848681518110610a0857610a07613bc6565b5b6020026020010181905250600185610a2091906138d9565b945050505b8080610a3090613abf565b915050610868565b508094505050505090565b6000600c54905090565b610a5e610a58611aa4565b82611b73565b610a9d576040517f08c379a0000000000000000000000000000000000000000000000000000000008152600401610a949061375b565b60405180910390fd5b610aa8838383611c51565b505050565b610ac8838383604051806020016040528060008152506112fd565b505050565b60606000610adb6008611b65565b905060008060005b83811015610b84573373ffffffffffffffffffffffffffffffffffffffff16600b6000600184610b1391906138d9565b815260200190815260200160002060010160009054906101000a900473ffffffffffffffffffffffffffffffffffffffff1673ffffffffffffffffffffffffffffffffffffffff161415610b7157600183610b6e91906138d9565b92505b8080610b7c90613abf565b915050610ae3565b5060008267ffffffffffffffff811115610ba157610ba0613bf5565b5b604051908082528060200260200182016040528015610bda57816020015b610bc761297d565b815260200190600190039081610bbf5790505b50905060005b84811015610db0573373ffffffffffffffffffffffffffffffffffffffff16600b6000600184610c1091906138d9565b815260200190815260200160002060010160009054906101000a900473ffffffffffffffffffffffffffffffffffffffff1673ffffffffffffffffffffffffffffffffffffffff161415610d9d576000600182610c6d91906138d9565b90506000600b60008381526020019081526020016000209050806040518060a0016040529081600082015481526020016001820160009054906101000a900473ffffffffffffffffffffffffffffffffffffffff1673ffffffffffffffffffffffffffffffffffffffff1673ffffffffffffffffffffffffffffffffffffffff1681526020016002820160009054906101000a900473ffffffffffffffffffffffffffffffffffffffff1673ffffffffffffffffffffffffffffffffffffffff1673ffffffffffffffffffffffffffffffffffffffff168152602001600382015481526020016004820160009054906101000a900460ff161515151581525050848681518110610d8057610d7f613bc6565b5b6020026020010181905250600185610d9891906138d9565b945050505b8080610da890613abf565b915050610be0565b508094505050505090565b6000806003600084815260200190815260200160002060009054906101000a900473ffffffffffffffffffffffffffffffffffffffff169050600073ffffffffffffffffffffffffffffffffffffffff168173ffffffffffffffffffffffffffffffffffffffff161415610e64576040517f08c379a0000000000000000000000000000000000000000000000000000000008152600401610e5b9061361b565b60405180910390fd5b80915050919050565b60008073ffffffffffffffffffffffffffffffffffffffff168273ffffffffffffffffffffffffffffffffffffffff161415610ede576040517f08c379a0000000000000000000000000000000000000000000000000000000008152600401610ed5906135fb565b60405180910390fd5b600460008373ffffffffffffffffffffffffffffffffffffffff1673ffffffffffffffffffffffffffffffffffffffff168152602001908152602001600020549050919050565b6000610f316008611eb8565b6000610f3d6008611b65565b9050610f493382611ece565b610f5381856120a8565b610f5d818461211c565b8091505092915050565b60606000610f756008611b65565b905060008060005b8381101561101e573373ffffffffffffffffffffffffffffffffffffffff16600b6000600184610fad91906138d9565b815260200190815260200160002060020160009054906101000a900473ffffffffffffffffffffffffffffffffffffffff1673ffffffffffffffffffffffffffffffffffffffff16141561100b5760018361100891906138d9565b92505b808061101690613abf565b915050610f7d565b5060008267ffffffffffffffff81111561103b5761103a613bf5565b5b60405190808252806020026020018201604052801561107457816020015b61106161297d565b8152602001906001900390816110595790505b50905060005b8481101561124a573373ffffffffffffffffffffffffffffffffffffffff16600b60006001846110aa91906138d9565b815260200190815260200160002060020160009054906101000a900473ffffffffffffffffffffffffffffffffffffffff1673ffffffffffffffffffffffffffffffffffffffff16141561123757600060018261110791906138d9565b90506000600b60008381526020019081526020016000209050806040518060a0016040529081600082015481526020016001820160009054906101000a900473ffffffffffffffffffffffffffffffffffffffff1673ffffffffffffffffffffffffffffffffffffffff1673ffffffffffffffffffffffffffffffffffffffff1681526020016002820160009054906101000a900473ffffffffffffffffffffffffffffffffffffffff1673ffffffffffffffffffffffffffffffffffffffff1673ffffffffffffffffffffffffffffffffffffffff168152602001600382015481526020016004820160009054906101000a900460ff16151515158152505084868151811061121a57611219613bc6565b5b602002602001018190525060018561123291906138d9565b945050505b808061124290613abf565b91505061107a565b508094505050505090565b60606002805461126490613a5c565b80601f016020809104026020016040519081016040528092919081815260200182805461129090613a5c565b80156112dd5780601f106112b2576101008083540402835291602001916112dd565b820191906000526020600020905b8154815290600101906020018083116112c057829003601f168201915b5050505050905090565b6112f96112f2611aa4565b8383612375565b5050565b61130e611308611aa4565b83611b73565b61134d576040517f08c379a00000000000000000000000000000000000000000000000000000000081526004016113449061375b565b60405180910390fd5b611359848484846124e2565b50505050565b600260005414156113a5576040517f08c379a000000000000000000000000000000000000000000000000000000000815260040161139c9061377b565b60405180910390fd5b60026000819055506000600b60008381526020019081526020016000206003015490506000600b600084815260200190815260200160002060010160009054906101000a900473ffffffffffffffffffffffffffffffffffffffff169050813414611445576040517f08c379a000000000000000000000000000000000000000000000000000000000815260040161143c9061367b565b60405180910390fd5b33600b600085815260200190815260200160002060020160006101000a81548173ffffffffffffffffffffffffffffffffffffffff021916908373ffffffffffffffffffffffffffffffffffffffff1602179055506001600b600085815260200190815260200160002060040160006101000a81548160ff0219169083151502179055506000600b600085815260200190815260200160002060010160006101000a81548173ffffffffffffffffffffffffffffffffffffffff021916908373ffffffffffffffffffffffffffffffffffffffff1602179055506115296009611eb8565b611534303385611c51565b600a60009054906101000a900473ffffffffffffffffffffffffffffffffffffffff1673ffffffffffffffffffffffffffffffffffffffff166108fc600c549081150290604051600060405180830381858888f1935050505015801561159e573d6000803e3d6000fd5b508073ffffffffffffffffffffffffffffffffffffffff166108fc349081150290604051600060405180830381858888f193505050501580156115e5573d6000803e3d6000fd5b505050600160008190555050565b60606115fe82611a38565b61163d576040517f08c379a0000000000000000000000000000000000000000000000000000000008152600401611634906136bb565b60405180910390fd5b600060076000848152602001908152602001600020805461165d90613a5c565b80601f016020809104026020016040519081016040528092919081815260200182805461168990613a5c565b80156116d65780601f106116ab576101008083540402835291602001916116d6565b820191906000526020600020905b8154815290600101906020018083116116b957829003601f168201915b5050505050905060006116e761253e565b90506000815114156116fd578192505050611740565b60008251111561173257808260405160200161171a9291906133ac565b60405160208183030381529060405292505050611740565b61173b84612555565b925050505b919050565b3373ffffffffffffffffffffffffffffffffffffffff16600b600084815260200190815260200160002060020160009054906101000a900473ffffffffffffffffffffffffffffffffffffffff1673ffffffffffffffffffffffffffffffffffffffff16146117e9576040517f08c379a00000000000000000000000000000000000000000000000000000000081526004016117e09061355b565b60405180910390fd5b600c54341461182d576040517f08c379a00000000000000000000000000000000000000000000000000000000081526004016118249061365b565b60405180910390fd5b6000600b600084815260200190815260200160002060040160006101000a81548160ff02191690831515021790555080600b60008481526020019081526020016000206003018190555033600b600084815260200190815260200160002060010160006101000a81548173ffffffffffffffffffffffffffffffffffffffff021916908373ffffffffffffffffffffffffffffffffffffffff16021790555030600b600084815260200190815260200160002060020160006101000a81548173ffffffffffffffffffffffffffffffffffffffff021916908373ffffffffffffffffffffffffffffffffffffffff16021790555061192b60096125fc565b611936333084611c51565b5050565b6000600660008473ffffffffffffffffffffffffffffffffffffffff1673ffffffffffffffffffffffffffffffffffffffff16815260200190815260200160002060008373ffffffffffffffffffffffffffffffffffffffff1673ffffffffffffffffffffffffffffffffffffffff16815260200190815260200160002060009054906101000a900460ff16905092915050565b60007f01ffc9a7000000000000000000000000000000000000000000000000000000007bffffffffffffffffffffffffffffffffffffffffffffffffffffffff1916827bffffffffffffffffffffffffffffffffffffffffffffffffffffffff1916149050919050565b60008073ffffffffffffffffffffffffffffffffffffffff166003600084815260200190815260200160002060009054906101000a900473ffffffffffffffffffffffffffffffffffffffff1673ffffffffffffffffffffffffffffffffffffffff1614159050919050565b600033905090565b816005600083815260200190815260200160002060006101000a81548173ffffffffffffffffffffffffffffffffffffffff021916908373ffffffffffffffffffffffffffffffffffffffff160217905550808273ffffffffffffffffffffffffffffffffffffffff16611b1f83610dbb565b73ffffffffffffffffffffffffffffffffffffffff167f8c5be1e5ebec7d5bd14f71427d1e84f3dd0314c0f7b2291e5b200ac8c7c3b92560405160405180910390a45050565b600081600001549050919050565b6000611b7e82611a38565b611bbd576040517f08c379a0000000000000000000000000000000000000000000000000000000008152600401611bb4906135bb565b60405180910390fd5b6000611bc883610dbb565b90508073ffffffffffffffffffffffffffffffffffffffff168473ffffffffffffffffffffffffffffffffffffffff161480611c3757508373ffffffffffffffffffffffffffffffffffffffff16611c1f8461063d565b73ffffffffffffffffffffffffffffffffffffffff16145b80611c485750611c47818561193a565b5b91505092915050565b8273ffffffffffffffffffffffffffffffffffffffff16611c7182610dbb565b73ffffffffffffffffffffffffffffffffffffffff1614611cc7576040517f08c379a0000000000000000000000000000000000000000000000000000000008152600401611cbe9061351b565b60405180910390fd5b600073ffffffffffffffffffffffffffffffffffffffff168273ffffffffffffffffffffffffffffffffffffffff161415611d37576040517f08c379a0000000000000000000000000000000000000000000000000000000008152600401611d2e9061357b565b60405180910390fd5b611d42838383612658565b611d4d600082611aac565b6001600460008573ffffffffffffffffffffffffffffffffffffffff1673ffffffffffffffffffffffffffffffffffffffff1681526020019081526020016000206000828254611d9d9190613960565b925050819055506001600460008473ffffffffffffffffffffffffffffffffffffffff1673ffffffffffffffffffffffffffffffffffffffff1681526020019081526020016000206000828254611df491906138d9565b92505081905550816003600083815260200190815260200160002060006101000a81548173ffffffffffffffffffffffffffffffffffffffff021916908373ffffffffffffffffffffffffffffffffffffffff160217905550808273ffffffffffffffffffffffffffffffffffffffff168473ffffffffffffffffffffffffffffffffffffffff167fddf252ad1be2c89b69c2b068fc378daa952ba7f163c4a11628f55a4df523b3ef60405160405180910390a4611eb383838361265d565b505050565b6001816000016000828254019250508190555050565b600073ffffffffffffffffffffffffffffffffffffffff168273ffffffffffffffffffffffffffffffffffffffff161415611f3e576040517f08c379a0000000000000000000000000000000000000000000000000000000008152600401611f359061369b565b60405180910390fd5b611f4781611a38565b15611f87576040517f08c379a0000000000000000000000000000000000000000000000000000000008152600401611f7e9061353b565b60405180910390fd5b611f9360008383612658565b6001600460008473ffffffffffffffffffffffffffffffffffffffff1673ffffffffffffffffffffffffffffffffffffffff1681526020019081526020016000206000828254611fe391906138d9565b92505081905550816003600083815260200190815260200160002060006101000a81548173ffffffffffffffffffffffffffffffffffffffff021916908373ffffffffffffffffffffffffffffffffffffffff160217905550808273ffffffffffffffffffffffffffffffffffffffff16600073ffffffffffffffffffffffffffffffffffffffff167fddf252ad1be2c89b69c2b068fc378daa952ba7f163c4a11628f55a4df523b3ef60405160405180910390a46120a46000838361265d565b5050565b6120b182611a38565b6120f0576040517f08c379a00000000000000000000000000000000000000000000000000000000081526004016120e79061363b565b60405180910390fd5b806007600084815260200190815260200160002090805190602001906121179291906129da565b505050565b60026000541415612162576040517f08c379a00000000000000000000000000000000000000000000000000000000081526004016121599061377b565b60405180910390fd5b6002600081905550600081116121ad576040517f08c379a00000000000000000000000000000000000000000000000000000000081526004016121a49061379b565b60405180910390fd5b600c5434146121f1576040517f08c379a00000000000000000000000000000000000000000000000000000000081526004016121e89061373b565b60405180910390fd5b6040518060a001604052808381526020013373ffffffffffffffffffffffffffffffffffffffff1681526020013073ffffffffffffffffffffffffffffffffffffffff16815260200182815260200160001515815250600b60008481526020019081526020016000206000820151816000015560208201518160010160006101000a81548173ffffffffffffffffffffffffffffffffffffffff021916908373ffffffffffffffffffffffffffffffffffffffff16021790555060408201518160020160006101000a81548173ffffffffffffffffffffffffffffffffffffffff021916908373ffffffffffffffffffffffffffffffffffffffff1602179055506060820151816003015560808201518160040160006101000a81548160ff02191690831515021790555090505061232a333084611c51565b817fb640004f1d14576d0c209e240cad0410e0d8c0c33a09375861fbadae2588a98d333084600060405161236194939291906133eb565b60405180910390a260016000819055505050565b8173ffffffffffffffffffffffffffffffffffffffff168373ffffffffffffffffffffffffffffffffffffffff1614156123e4576040517f08c379a00000000000000000000000000000000000000000000000000000000081526004016123db9061359b565b60405180910390fd5b80600660008573ffffffffffffffffffffffffffffffffffffffff1673ffffffffffffffffffffffffffffffffffffffff16815260200190815260200160002060008473ffffffffffffffffffffffffffffffffffffffff1673ffffffffffffffffffffffffffffffffffffffff16815260200190815260200160002060006101000a81548160ff0219169083151502179055508173ffffffffffffffffffffffffffffffffffffffff168373ffffffffffffffffffffffffffffffffffffffff167f17307eab39ab6107e8899845ad3d59bd9653f200f220920489ca2b5937696c31836040516124d5919061349e565b60405180910390a3505050565b6124ed848484611c51565b6124f984848484612662565b612538576040517f08c379a000000000000000000000000000000000000000000000000000000000815260040161252f906134fb565b60405180910390fd5b50505050565b606060405180602001604052806000815250905090565b606061256082611a38565b61259f576040517f08c379a0000000000000000000000000000000000000000000000000000000008152600401612596906136fb565b60405180910390fd5b60006125a961253e565b905060008151116125c957604051806020016040528060008152506125f4565b806125d3846127f9565b6040516020016125e49291906133ac565b6040516020818303038152906040525b915050919050565b60008160000154905060008111612648576040517f08c379a000000000000000000000000000000000000000000000000000000000815260040161263f906134db565b60405180910390fd5b6001810382600001819055505050565b505050565b505050565b60006126838473ffffffffffffffffffffffffffffffffffffffff1661295a565b156127ec578373ffffffffffffffffffffffffffffffffffffffff1663150b7a026126ac611aa4565b8786866040518563ffffffff1660e01b81526004016126ce9493929190613430565b602060405180830381600087803b1580156126e857600080fd5b505af192505050801561271957506040513d601f19601f820116820180604052508101906127169190612db6565b60015b61279c573d8060008114612749576040519150601f19603f3d011682016040523d82523d6000602084013e61274e565b606091505b50600081511415612794576040517f08c379a000000000000000000000000000000000000000000000000000000000815260040161278b906134fb565b60405180910390fd5b805181602001fd5b63150b7a0260e01b7bffffffffffffffffffffffffffffffffffffffffffffffffffffffff1916817bffffffffffffffffffffffffffffffffffffffffffffffffffffffff1916149150506127f1565b600190505b949350505050565b60606000821415612841576040518060400160405280600181526020017f30000000000000000000000000000000000000000000000000000000000000008152509050612955565b600082905060005b6000821461287357808061285c90613abf565b915050600a8261286c919061392f565b9150612849565b60008167ffffffffffffffff81111561288f5761288e613bf5565b5b6040519080825280601f01601f1916602001820160405280156128c15781602001600182028036833780820191505090505b5090505b6000851461294e576001826128da9190613960565b9150600a856128e99190613b08565b60306128f591906138d9565b60f81b81838151811061290b5761290a613bc6565b5b60200101907effffffffffffffffffffffffffffffffffffffffffffffffffffffffffffff1916908160001a905350600a85612947919061392f565b94506128c5565b8093505050505b919050565b6000808273ffffffffffffffffffffffffffffffffffffffff163b119050919050565b6040518060a0016040528060008152602001600073ffffffffffffffffffffffffffffffffffffffff168152602001600073ffffffffffffffffffffffffffffffffffffffff168152602001600081526020016000151581525090565b8280546129e690613a5c565b90600052602060002090601f016020900481019282612a085760008555612a4f565b82601f10612a2157805160ff1916838001178555612a4f565b82800160010185558215612a4f579182015b82811115612a4e578251825591602001919060010190612a33565b5b509050612a5c9190612a60565b5090565b5b80821115612a79576000816000905550600101612a61565b5090565b6000612a90612a8b846137fb565b6137d6565b905082815260208101848484011115612aac57612aab613c29565b5b612ab7848285613a1a565b509392505050565b6000612ad2612acd8461382c565b6137d6565b905082815260208101848484011115612aee57612aed613c29565b5b612af9848285613a1a565b509392505050565b600081359050612b1081614258565b92915050565b600081359050612b258161426f565b92915050565b600081359050612b3a81614286565b92915050565b600081519050612b4f81614286565b92915050565b600082601f830112612b6a57612b69613c24565b5b8135612b7a848260208601612a7d565b91505092915050565b600082601f830112612b9857612b97613c24565b5b8135612ba8848260208601612abf565b91505092915050565b600081359050612bc08161429d565b92915050565b600060208284031215612bdc57612bdb613c33565b5b6000612bea84828501612b01565b91505092915050565b60008060408385031215612c0a57612c09613c33565b5b6000612c1885828601612b01565b9250506020612c2985828601612b01565b9150509250929050565b600080600060608486031215612c4c57612c4b613c33565b5b6000612c5a86828701612b01565b9350506020612c6b86828701612b01565b9250506040612c7c86828701612bb1565b9150509250925092565b60008060008060808587031215612ca057612c9f613c33565b5b6000612cae87828801612b01565b9450506020612cbf87828801612b01565b9350506040612cd087828801612bb1565b925050606085013567ffffffffffffffff811115612cf157612cf0613c2e565b5b612cfd87828801612b55565b91505092959194509250565b60008060408385031215612d2057612d1f613c33565b5b6000612d2e85828601612b01565b9250506020612d3f85828601612b16565b9150509250929050565b60008060408385031215612d6057612d5f613c33565b5b6000612d6e85828601612b01565b9250506020612d7f85828601612bb1565b9150509250929050565b600060208284031215612d9f57612d9e613c33565b5b6000612dad84828501612b2b565b91505092915050565b600060208284031215612dcc57612dcb613c33565b5b6000612dda84828501612b40565b91505092915050565b60008060408385031215612dfa57612df9613c33565b5b600083013567ffffffffffffffff811115612e1857612e17613c2e565b5b612e2485828601612b83565b9250506020612e3585828601612bb1565b9150509250929050565b600060208284031215612e5557612e54613c33565b5b6000612e6384828501612bb1565b91505092915050565b60008060408385031215612e8357612e82613c33565b5b6000612e9185828601612bb1565b9250506020612ea285828601612bb1565b9150509250929050565b6000612eb88383613326565b60a08301905092915050565b612ecd816139a6565b82525050565b612edc81613994565b82525050565b6000612eed8261386d565b612ef7818561389b565b9350612f028361385d565b8060005b83811015612f33578151612f1a8882612eac565b9750612f258361388e565b925050600181019050612f06565b5085935050505092915050565b612f49816139b8565b82525050565b612f58816139b8565b82525050565b6000612f6982613878565b612f7381856138ac565b9350612f83818560208601613a29565b612f8c81613c38565b840191505092915050565b6000612fa282613883565b612fac81856138bd565b9350612fbc818560208601613a29565b612fc581613c38565b840191505092915050565b6000612fdb82613883565b612fe581856138ce565b9350612ff5818560208601613a29565b80840191505092915050565b600061300e601b836138bd565b915061301982613c49565b602082019050919050565b60006130316032836138bd565b915061303c82613c72565b604082019050919050565b60006130546025836138bd565b915061305f82613cc1565b604082019050919050565b6000613077601c836138bd565b915061308282613d10565b602082019050919050565b600061309a601b836138bd565b91506130a582613d39565b602082019050919050565b60006130bd6024836138bd565b91506130c882613d62565b604082019050919050565b60006130e06019836138bd565b91506130eb82613db1565b602082019050919050565b6000613103602c836138bd565b915061310e82613dda565b604082019050919050565b60006131266038836138bd565b915061313182613e29565b604082019050919050565b6000613149602a836138bd565b915061315482613e78565b604082019050919050565b600061316c6029836138bd565b915061317782613ec7565b604082019050919050565b600061318f602e836138bd565b915061319a82613f16565b604082019050919050565b60006131b26024836138bd565b91506131bd82613f65565b604082019050919050565b60006131d56040836138bd565b91506131e082613fb4565b604082019050919050565b60006131f86020836138bd565b915061320382614003565b602082019050919050565b600061321b6031836138bd565b91506132268261402c565b604082019050919050565b600061323e602c836138bd565b91506132498261407b565b604082019050919050565b6000613261602f836138bd565b915061326c826140ca565b604082019050919050565b60006132846021836138bd565b915061328f82614119565b604082019050919050565b60006132a76024836138bd565b91506132b282614168565b604082019050919050565b60006132ca6031836138bd565b91506132d5826141b7565b604082019050919050565b60006132ed601f836138bd565b91506132f882614206565b602082019050919050565b6000613310601c836138bd565b915061331b8261422f565b602082019050919050565b60a08201600082015161333c600085018261338e565b50602082015161334f6020850182612ec4565b5060408201516133626040850182612ec4565b506060820151613375606085018261338e565b5060808201516133886080850182612f40565b50505050565b61339781613a10565b82525050565b6133a681613a10565b82525050565b60006133b88285612fd0565b91506133c48284612fd0565b91508190509392505050565b60006020820190506133e56000830184612ed3565b92915050565b60006080820190506134006000830187612ed3565b61340d6020830186612ed3565b61341a604083018561339d565b6134276060830184612f4f565b95945050505050565b60006080820190506134456000830187612ed3565b6134526020830186612ed3565b61345f604083018561339d565b81810360608301526134718184612f5e565b905095945050505050565b600060208201905081810360008301526134968184612ee2565b905092915050565b60006020820190506134b36000830184612f4f565b92915050565b600060208201905081810360008301526134d38184612f97565b905092915050565b600060208201905081810360008301526134f481613001565b9050919050565b6000602082019050818103600083015261351481613024565b9050919050565b6000602082019050818103600083015261353481613047565b9050919050565b600060208201905081810360008301526135548161306a565b9050919050565b600060208201905081810360008301526135748161308d565b9050919050565b60006020820190508181036000830152613594816130b0565b9050919050565b600060208201905081810360008301526135b4816130d3565b9050919050565b600060208201905081810360008301526135d4816130f6565b9050919050565b600060208201905081810360008301526135f481613119565b9050919050565b600060208201905081810360008301526136148161313c565b9050919050565b600060208201905081810360008301526136348161315f565b9050919050565b6000602082019050818103600083015261365481613182565b9050919050565b60006020820190508181036000830152613674816131a5565b9050919050565b60006020820190508181036000830152613694816131c8565b9050919050565b600060208201905081810360008301526136b4816131eb565b9050919050565b600060208201905081810360008301526136d48161320e565b9050919050565b600060208201905081810360008301526136f481613231565b9050919050565b6000602082019050818103600083015261371481613254565b9050919050565b6000602082019050818103600083015261373481613277565b9050919050565b600060208201905081810360008301526137548161329a565b9050919050565b60006020820190508181036000830152613774816132bd565b9050919050565b60006020820190508181036000830152613794816132e0565b9050919050565b600060208201905081810360008301526137b481613303565b9050919050565b60006020820190506137d0600083018461339d565b92915050565b60006137e06137f1565b90506137ec8282613a8e565b919050565b6000604051905090565b600067ffffffffffffffff82111561381657613815613bf5565b5b61381f82613c38565b9050602081019050919050565b600067ffffffffffffffff82111561384757613846613bf5565b5b61385082613c38565b9050602081019050919050565b6000819050602082019050919050565b600081519050919050565b600081519050919050565b600081519050919050565b6000602082019050919050565b600082825260208201905092915050565b600082825260208201905092915050565b600082825260208201905092915050565b600081905092915050565b60006138e482613a10565b91506138ef83613a10565b9250827fffffffffffffffffffffffffffffffffffffffffffffffffffffffffffffffff0382111561392457613923613b39565b5b828201905092915050565b600061393a82613a10565b915061394583613a10565b92508261395557613954613b68565b5b828204905092915050565b600061396b82613a10565b915061397683613a10565b92508282101561398957613988613b39565b5b828203905092915050565b600061399f826139f0565b9050919050565b60006139b1826139f0565b9050919050565b60008115159050919050565b60007fffffffff0000000000000000000000000000000000000000000000000000000082169050919050565b600073ffffffffffffffffffffffffffffffffffffffff82169050919050565b6000819050919050565b82818337600083830152505050565b60005b83811015613a47578082015181840152602081019050613a2c565b83811115613a56576000848401525b50505050565b60006002820490506001821680613a7457607f821691505b60208210811415613a8857613a87613b97565b5b50919050565b613a9782613c38565b810181811067ffffffffffffffff82111715613ab657613ab5613bf5565b5b80604052505050565b6000613aca82613a10565b91507fffffffffffffffffffffffffffffffffffffffffffffffffffffffffffffffff821415613afd57613afc613b39565b5b600182019050919050565b6000613b1382613a10565b9150613b1e83613a10565b925082613b2e57613b2d613b68565b5b828206905092915050565b7f4e487b7100000000000000000000000000000000000000000000000000000000600052601160045260246000fd5b7f4e487b7100000000000000000000000000000000000000000000000000000000600052601260045260246000fd5b7f4e487b7100000000000000000000000000000000000000000000000000000000600052602260045260246000fd5b7f4e487b7100000000000000000000000000000000000000000000000000000000600052603260045260246000fd5b7f4e487b7100000000000000000000000000000000000000000000000000000000600052604160045260246000fd5b600080fd5b600080fd5b600080fd5b600080fd5b6000601f19601f8301169050919050565b7f436f756e7465723a2064656372656d656e74206f766572666c6f770000000000600082015250565b7f4552433732313a207472616e7366657220746f206e6f6e20455243373231526560008201527f63656976657220696d706c656d656e7465720000000000000000000000000000602082015250565b7f4552433732313a207472616e736665722066726f6d20696e636f72726563742060008201527f6f776e6572000000000000000000000000000000000000000000000000000000602082015250565b7f4552433732313a20746f6b656e20616c7265616479206d696e74656400000000600082015250565b7f6f6e6c7920746f6b656e206f776e657220697320616c6c6f7765640000000000600082015250565b7f4552433732313a207472616e7366657220746f20746865207a65726f2061646460008201527f7265737300000000000000000000000000000000000000000000000000000000602082015250565b7f4552433732313a20617070726f766520746f2063616c6c657200000000000000600082015250565b7f4552433732313a206f70657261746f7220717565727920666f72206e6f6e657860008201527f697374656e7420746f6b656e0000000000000000000000000000000000000000602082015250565b7f4552433732313a20617070726f76652063616c6c6572206973206e6f74206f7760008201527f6e6572206e6f7220617070726f76656420666f7220616c6c0000000000000000602082015250565b7f4552433732313a2062616c616e636520717565727920666f7220746865207a6560008201527f726f206164647265737300000000000000000000000000000000000000000000602082015250565b7f4552433732313a206f776e657220717565727920666f72206e6f6e657869737460008201527f656e7420746f6b656e0000000000000000000000000000000000000000000000602082015250565b7f45524337323155524953746f726167653a2055524920736574206f66206e6f6e60008201527f6578697374656e7420746f6b656e000000000000000000000000000000000000602082015250565b7f7072696365206d75737420626520657175616c20746f206c697374696e67207060008201527f7269636500000000000000000000000000000000000000000000000000000000602082015250565b7f506c65617365207375626d6974207468652061736b696e67207072696365206960008201527f6e206f7264657220746f20636f6d706c65746520746865207075726368617365602082015250565b7f4552433732313a206d696e7420746f20746865207a65726f2061646472657373600082015250565b7f45524337323155524953746f726167653a2055524920717565727920666f722060008201527f6e6f6e6578697374656e7420746f6b656e000000000000000000000000000000602082015250565b7f4552433732313a20617070726f76656420717565727920666f72206e6f6e657860008201527f697374656e7420746f6b656e0000000000000000000000000000000000000000602082015250565b7f4552433732314d657461646174613a2055524920717565727920666f72206e6f60008201527f6e6578697374656e7420746f6b656e0000000000000000000000000000000000602082015250565b7f4552433732313a20617070726f76616c20746f2063757272656e74206f776e6560008201527f7200000000000000000000000000000000000000000000000000000000000000602082015250565b7f5072696365206d75737420626520657175616c20746f206c697374696e67207060008201527f7269636500000000000000000000000000000000000000000000000000000000602082015250565b7f4552433732313a207472616e736665722063616c6c6572206973206e6f74206f60008201527f776e6572206e6f7220617070726f766564000000000000000000000000000000602082015250565b7f5265656e7472616e637947756172643a207265656e7472616e742063616c6c00600082015250565b7f5072696365206d757374206265206174206c6561737420312077656900000000600082015250565b61426181613994565b811461426c57600080fd5b50565b614278816139b8565b811461428357600080fd5b50565b61428f816139c4565b811461429a57600080fd5b50565b6142a681613a10565b81146142b157600080fd5b5056fea2646970667358221220283c360a548ab5a928b81814eb7d02939b072832f5bb94493e0cced3d197de9c64736f6c63430008070033",
  "linkReferences": {},
  "deployedLinkReferences": {}
}